:020000040800F2
:1000000000000320C92403087FAA02089BAA020853
:10001000B7AA0208D3AA0208EFAA0208000000004B
:100020000000000000000000000000001925030887
:100030000BAB0208000000001925030827AB0208DB
:10004000192503081925030819250308192503088C
:10005000192503081925030819250308192503087C
:10006000192503085D090008192503081925030847
:10007000192503081925030819250308192503085C
:10008000192503081925030819250308192503084C
:10009000192503081925030819250308192503083C
:1000A000192503081925030819250308192503082C
:1000B000192503081925030819250308192503081C
:1000C000192503081925030819250308192503080C
:1000D00019250308192503081925030819250308FC
:1000E00019250308192503081925030819250308EC
:1000F00019250308192503081925030819250308DC
:1001000019250308192503081925030819250308CB
:1001100019250308192503081925030819250308BB
:1001200019250308192503081925030819250308AB
:100130001925030837AB02081925030819250308F8
:10014000192503081925030819250308192503088B
:10015000192503081925030819250308192503087B
:10016000192503081925030819250308192503086B
:1001700019250308192503081925030800000000A4
:10018000192503081925030819250308192503084B
:10019000192503081925030819250308192503083B
:0C01A00019250308192503081925030878
:1001C0000348044B834202D0034B03B118477047E6
:1001D000C4090020C40900200000000005480649A9
:1001E0000B1AD90F01EBA301491002D0034B03B145
:1001F00018477047C4090020C4090020000000000F
:1002000010B5064C237843B9FFF7DAFF044B13B15E
:100210000448AFF300800123237010BDC4090020FF
:10022000000000003025030808B5044B1BB1044949
:100230000448AFF30080BDE80840CFE700000000AD
:10024000C809002030250308A3F5803A704700BF95
:10025000154B002B08BF114B9D46FFF7F5FF002102
:100260008B460F461148124A121A2AF0A7FE0C4B71
:10027000002B00D098470B4B002B00D09847002054
:10028000002104000D000B482AF042FE2AF072FE05
:100290002000290000F094F82AF046FE0000080033
:1002A000000000000000000000000000C409002061
:1002B000640B002049AF020880B586B000AF002370
:1002C0007B613A4B1B6B394A43F001031363374B95
:1002D0001B6B03F001037B617B6900233B61334BA4
:1002E0001B6B324A43F002031363304B1B6B03F06A
:1002F00002033B613B690023FB602C4B1B6B2B4AC9
:1003000043F004031363294B1B6B03F00403FB60EE
:10031000FB680023BB60254B1B6B244A43F0100392
:100320001363224B1B6B03F01003BB60BB680023FD
:100330007B601E4B1B6B1D4A43F0200313631B4B5A
:100340001B6B03F020037B607B682AF049FA184B93
:100350001B68174A23F028431360154B9B68144A07
:1003600023F02C439360134B1B68124A23F4207331
:100370001360114B104A1B681360104B0F4A1B6827
:10038000136000F003FB00F0BBF900F097FC0A4B90
:10039000DB68094A23F04063D360074B064ADB68F9
:1003A000D36000BF1837BD4680BD00BF0038024093
:1003B0000000024000040240000802400010024019
:1003C00080B586B000AF0123FB752AF03FF902200B
:1003D0002AF07CF90023BB7503F022F8FFF76CFFCD
:1003E00003F0BAF8386103F0B7F8F8600023FB7245
:1003F00000233B720023BB720023FB710023BB71FF
:1004000000237B7100237B7203F0A6F80246FB6891
:10041000D31A322B04D900F0A7FC03F09DF8F86042
:1004200000F00AFE0346002B7AD000F00FFE0346D0
:100430000F2B76D801A252F823F000BFF904000870
:100440007D0400088904000893040008A70400083C
:10045000B1040008BB040008CF040008DB04000856
:10046000E50400089D040008C5040008EF04000826
:10047000030500080D05000817050008BB7A83F086
:100480007F03DB43BB724CE0BB7A83F04003BB725B
:1004900047E0BB7A83F02003BB7242E0BB7A83F073
:1004A0001003BB723DE0BB7A83F00803BB7238E0F7
:1004B000BB7A83F00403BB7233E0BB7A83F00203A0
:1004C000BB722EE0BB7A83F00103BB7229E0FB7A9A
:1004D00083F07F03DB43FB7223E0FB7A83F040036E
:1004E000FB721EE0FB7A83F02003FB7219E0FB7ABB
:1004F00083F01003FB7214E0FB7A83F00103FB72BC
:100500000FE0FB7A83F00803FB720AE0FB7A83F0CA
:100510000403FB7205E0FB7A83F00203FB7200E048
:1005200000BF03F019F802463B69D31AB3F5967F72
:1005300018D9BB7D002B15D1434B1B695B0B03F016
:100540000103002B0BD002202AF01CF90123BB75FC
:10055000FB7D002B0CBF01230023DBB2FB7502F0F7
:10056000FBFF3861384B1B695B0B03F00103002B69
:1005700001D10023BB7500F0ADF80346012B17D164
:10058000FB7D002B08D0BB7A184600F06FFD0346B8
:100590007B717B797B7207E0FB7A184600F089FD5E
:1005A00003463B723B7A7B7204202AF0BDF81FE0C1
:1005B00004202AF08BF800F08DF80346022B01D1BD
:1005C00000F092F8FB7D002B0AD0BB7A184600F0B1
:1005D0004DFD03461B0A9BB2BB71BB797B7207E0E2
:1005E000BB7A184600F065FD0346FB71FB797B7210
:1005F0007B7A184600F0E4FE0346002B03D1134B30
:100600001B88002B19D07B7A9BB2104A1288002AD3
:1006100002D04FF4807200E0002213449BB20C4AD7
:100620001288002A02D04FF4007200E00022134426
:100630009BB2184600F0E8FA04E07B7A9BB21846B9
:1006400000F0E2FAE0E600BF00080240B40A002031
:10065000B20A002080B483B000AF0346FB7197F963
:100660000730002B0CDBFB7903F01F02074997F9D9
:1006700007305B09012000FA02F2603341F82320C1
:1006800000BF0C37BD4680BC704700BF00E100E0F2
:1006900080B500AF02F060FF02460B4B1B68D31A17
:1006A000C82B0AD9094B1B6903F00103002B04D0A6
:1006B000074B1B680133064A136002F04DFF0346E7
:1006C000014A136000BF80BDF40900200000024011
:1006D000F009002080B400AF024B1B681846BD46ED
:1006E00080BC7047F009002080B400AF034B0022AB
:1006F0001A6000BFBD4680BC704700BFF0090020F3
:1007000080B500AFFFF7F0FF1E4BDB681D4A43F0DA
:100710001003D3601B4B9B681A4A43F0C0039360DD
:10072000194B5B6C184A43F480435364174B9B6826
:10073000164A23F470439360144B144A9B689360E9
:10074000134B9B68124A23F008039360104BDB683D
:100750000F4A43F00803D3600D4B1B680C4A43F06B
:100760000803136000220A21092003F028FA00225E
:1007700006214FF0FF3003F022FA092003F03BFA84
:1007800000BF80BD00000240003802400038014038
:10079000003C014080B582B000AF584B1B68574AFF
:1007A00043F0C3031360554B9B68544A23F0C303C3
:1007B0009360524B9B68514A43F0820393604F4BC6
:1007C000DB684E4A23F01B03D36000237B604C4B55
:1007D0005B6C4B4A43F480735364494B5B6C03F48A
:1007E00080737B607B68474B474A1A60454B002209
:1007F0005A60444B00229A60424B00221A61414BDE
:1008000000221A763F4B002283F820203D4B002225
:100810005A623C4B0022DA623A4B00229A62394B10
:100820000022DA60374B0122DA61364B002283F86E
:100830003020344B00225A61324800F0F9FD334B2E
:100840000A221A60314B01225A60304B00229A6012
:100850002E4B0022DA602D492A4801F04DFC00237E
:100860003B60274B5B6C264A43F400735364244B74
:100870005B6C03F400733B603B68254B254A1A60B0
:10088000234B00225A60224B00229A60204B002208
:100890001A611F4B00221A761D4B002283F820207C
:1008A0001B4B00225A621A4B0022DA62184B0022BC
:1008B0009A62174B0022DA60154B0122DA61144B61
:1008C000002283F83020124B00225A61104800F0B9
:1008D000AFFD114B0D221A600F4B01225A600E4BD7
:1008E00000229A600C4B0022DA600B49084801F0A4
:1008F00003FC00BF0837BD4680BD00BF00080240B2
:1009000000380240F809002000200140880A002039
:10091000400A002000210140980A002084B080B5E0
:1009200082B000AF07F1100C8CE80F0007F1100047
:1009300000F005FE00BF0A2107F1100000F002FFE1
:100940000346002BF7D13B69DB6C7B607B68184664
:100950000837BD46BDE8804004B0704780B500AFA1
:100960000920FFF777FE084B5B6903F00803082BAB
:1009700007D1FFF78DFE044B5B69034A43F0080380
:10098000536100BF80BD00BF003C014080B400AF98
:10099000384B1B68374A43F0804343F4807313603D
:1009A000354B1B68344A43F08A4343F4A863136011
:1009B000324B1B68314A43F4A04313602D4B2D4A40
:1009C0005B6853602C4B2C4A5B6853602B4B2B4A63
:1009D0005B685360274B9B68264A23F02C43936047
:1009E000254B9B68244A23F0C0039360234B234A82
:1009F0009B6893601F4B9B681E4A43F4C03343F0CF
:100A0000300393601C4B9B681B4A43F4F83343F05C
:100A100078039360194B9B68184A43F4E073936022
:100A2000144BDB68134A23F0C843D360124BDB68D6
:100A3000114A23F48073D360104B104ADB68D360F3
:100A40000C4BDB680B4A43F4803343F02003D36044
:100A5000094BDB68084A43F4B03343F07003D360BA
:100A6000064BDB68054A43F4C073D36000BFBD4644
:100A700080BC7047000002400004024000080240B1
:100A800080B483B000AF78600B46FB707B68092BA5
:100A900000F2AE8001A252F823F000BFC50A0008A0
:100AA000E30A0008010B00081F0B00083D0B0008BB
:100AB0005B0B0008790B0008970B0008B50B0008CA
:100AC000D30B00084D4B5B694C4A23F04003536144
:100AD0004A4B5B69FA7892011146484A0B435361CD
:100AE00086E0474B5B69464A23F400435361444B1D
:100AF0005B69FA78D2031146414A0B43536177E0B0
:100B00003F4B5B693E4A23F4005353613C4B5B69A6
:100B1000FA78520311463A4A0B43536168E0384B66
:100B20005B69374A23F480535361354B5B69FA782C
:100B300012031146324A0B43536159E0314B5B6952
:100B4000304A23F4004353612E4B5B69FA78D20399
:100B500011462C4A0B4353614AE0284B5B69274AF4
:100B600023F080035361254B5B69FA78D20111466B
:100B7000224A0B4353613BE0214B5B69204A23F03F
:100B8000200353611E4B5B69FA78520111461C4ADF
:100B90000B4353612CE01A4B5B69194A23F008039D
:100BA0005361174B5B69FA78D2001146144A0B4324
:100BB00053611DE0134B5B69124A23F0100353612C
:100BC000104B5B69FA78120111460E4A0B435361D0
:100BD0000EE00B4B5B690A4A23F010035361084B8C
:100BE0005B69FA7812011146054A0B43536100BF55
:100BF00000BF0C37BD4680BC704700BF00080240F4
:100C0000000402400000024080B584B000AF0346FB
:100C1000FB800023FB6013E0FA88FB6842FA03F3D1
:100C200003F00103002B04D00121F868FFF728FF2F
:100C300003E00021F868FFF723FFFB680133FB6046
:100C4000FB68092BE8DD00BF00BF1037BD4680BD43
:100C500080B584B000AF03460A46FB801346BB80D4
:100C6000FB88DB437B817A89BB8813407B8100232F
:100C7000FB601BE0BA88FB6842FA03F303F0010350
:100C8000002B10D07A89FB6842FA03F303F00103CA
:100C9000002B04D00121F868FFF7F2FE03E00021E9
:100CA000F868FFF7EDFEFB680133FB60FB68092B7A
:100CB000E0DD00BF00BF1037BD4680BD80B400AF8F
:100CC000244B1B68234A43F0887343F4A03313601A
:100CD000204B9B681F4A43F04C7343F4703393607E
:100CE0001C4B5B681B4A23F4AC535360194B194AE5
:100CF0001B681360184B184A1B681360154BDB68A0
:100D0000144A23F0A043D360134BDB68124A23F448
:100D1000A003D3600F4BDB680E4A43F0A043D360BF
:100D20000D4BDB680C4A43F4A003D360094B5B69AD
:100D3000084A43F4AC535361084B00221A60084B35
:100D400000221A60074BFF221A7000BFBD4680BC0C
:100D5000704700BF0010024000040240A80A0020B3
:100D6000AC0A0020B00A002080B582B000AF01209C
:100D700029F0DAFC00F0E8F803463B603B680F2BF3
:100D800002D06E4B01221A6001237B606C4B1B6802
:100D9000042B00F2CB8001A252F823F0B10D000821
:100DA000BD0D0008190E0008750E0008D10E0008D0
:100DB000012000F003F901237B60B7E03B68073BAB
:100DC000072B23D801A252F823F000BF050E00081C
:100DD0000D0E00080D0E00080D0E0008FD0D000898
:100DE0000D0E0008F50D0008ED0D0008554B012211
:100DF0001A700BE0534B04221A7007E0514B072284
:100E00001A7003E04F4B00221A7000BF022000F05E
:100E1000D5F802237B6089E03B68073B072B23D88A
:100E200001A252F823F000BF610E0008690E00080D
:100E3000690E0008690E0008590E0008690E0008C6
:100E4000510E0008490E00083E4B02221A700BE0BA
:100E50003C4B05221A7007E03A4B08221A7003E057
:100E6000384B0F221A7000BF032000F0A7F80323AD
:100E70007B605BE03B68073B072B23D801A252F85D
:100E800023F000BFBD0E0008C50E0008C50E000807
:100E9000C50E0008B50E0008C50E0008AD0E00080E
:100EA000A50E0008274B03221A700BE0254B0622E3
:100EB0001A7007E0234B09221A7003E0214B0E221F
:100EC0001A7000BF042000F079F804237B602DE045
:100ED0003B68073B072B23D801A252F823F000BF41
:100EE000190F0008210F0008210F0008210F00082A
:100EF000110F0008210F0008090F0008010F00085A
:100F0000104B0A221A700BE00E4B0B221A7007E0EE
:100F10000C4B0C221A7003E00A4B0D221A7000BF12
:100F2000012000F04BF801237B6000BF044A7B687E
:100F3000136000BF0837BD4680BD00BFAC0A00206B
:100F4000A80A0020B00A002080B582B000AF194B7B
:100F50001B699B0BDBB2DB00DBB203F00803DAB2E8
:100F6000144B1B69DB0BDBB29B00DBB203F0040309
:100F7000DBB21343DAB2104B1B699B0ADBB25B0096
:100F8000DBB203F00203DBB21343DAB20A4B1B6994
:100F9000DB0ADBB203F00103DBB21343FB71FB7925
:100FA0000F2B02D0012029F091FBFB79184608375E
:100FB000BD4680BD001002400004024080B483B0F2
:100FC00000AF0346FB711B4B5B691A4A43F4AC53F9
:100FD0005361FB79013B032B26D801A252F823F081
:100FE0001B1000080D100008FF0F0008F10F00088B
:100FF000104B5B690F4A23F48073536114E00D4B6F
:101000005B690C4A23F0800353610DE0094B5B6977
:10101000084A23F48063536106E0064B5B69054A86
:1010200023F48053536100BF00BF0C37BD4680BC22
:10103000704700BF0010024080B400AF024B1B6835
:101040001846BD4680BC7047AC0A002080B400AF93
:10105000044B00221A60044B1B781846BD4680BC26
:10106000704700BFAC0A0020B00A002080B584B0F1
:1010700000AF0346FB71FB7903F00F03DBB21846A8
:1010800000F018F90346FB73FB791B09DBB2184625
:1010900000F010F90346BB73FB7B1AB2BB7B1B024B
:1010A0001BB213431BB2BB81BB8918461037BD4628
:1010B00080BD80B487B000AF0346FB71FB7903F0BD
:1010C0001003002B14BF01230023DBB2FB75FB7957
:1010D00003F02003002B14BF01230023DBB2BB75F8
:1010E000FB7903F04003002B14BF01230023DBB284
:1010F0007B7597F90730DBB2DB09DBB23B75FB7917
:1011000003F00103002B14BF01230023DBB2FB74A7
:10111000FB7903F00203002B14BF01230023DBB291
:10112000BB74FB7903F00403002B14BF01230023DD
:10113000DBB27B74FB7903F00803002B14BF01239F
:101140000023DBB23B74BA7CBB7D5340DAB27B7DBB
:101150005340DAB23B7D5340FB737A7CFB7D5340B6
:10116000DAB27B7D5340DAB23B7D5340BB733A7CAD
:10117000FB7D5340DAB2BB7D5340DAB23B7D534036
:101180007B734A4B01221A80FA7BBB7B1340DBB294
:10119000002B07D03B7D002B0CBF01230023DBB2CB
:1011A0003B754AE0FA7BBB7B1340DBB21A467B7B84
:1011B000002B0CBF01230023DBB21340002B07D010
:1011C0007B7D002B0CBF01230023DBB27B7534E059
:1011D000FB7BBA7B002A0CBF01220022D2B21A404C
:1011E0007B7B1340002B07D0BB7D002B0CBF012362
:1011F0000023DBB2BB7520E0FB7B002B0CBF01237F
:101200000023DBB21A46BB7B1A407B7B1340002BCA
:1012100007D0FB7D002B0CBF01230023DBB2FB7545
:101220000BE0FA7BBB7B1343DAB27B7B1343DBB26D
:10123000002B02D11D4B00221A80FA7CFB7B53400D
:10124000DAB2BB7B5340DAB27B7B5340DAB2FB7D30
:101250005340DAB2BB7D5340DAB27B7D5340DAB201
:101260003B7D5340FB743B7DDB005AB27B7D9B0092
:101270005BB213435AB2BB7D5B005BB213435AB2FD
:1012800097F9173013435BB23B73FB7C002B03D001
:10129000074B01221A8002E0054B00221A803B7B9B
:1012A00018461C37BD4680BC704700BFB40A0020FA
:1012B000B20A002080B487B000AF0346FB71002360
:1012C000FB75FB7903F00103002B14BF01230023FE
:1012D000DBB27B75FB7903F00203002B14BF012303
:1012E0000023DBB23B75FB7903F00403002B14BF32
:1012F00001230023DBB2FB74FB7903F00803002B0E
:1013000014BF01230023DBB2BB743A7DFB7C534046
:10131000DAB2BB7C53407B747A7DFB7C5340DAB2FB
:10132000BB7C53403B747A7D3B7D5340DAB2BB7C3F
:101330005340FB737B7C5B005AB23B7C9B005BB2EF
:1013400013435AB2FB7BDB005BB213435AB27B7D83
:101350001B015BB213435AB23B7D5B015BB213438B
:101360005AB2FB7C9B015BB213435AB2BB7CDB01DC
:101370005BB213435BB2BB730123BB7513E0BA7B53
:10138000BB7D42FA03F303F00103002B14BF0123DA
:101390000023DBB25AB297F9173053405BB2FB75AA
:1013A000BB7D0133BB75BB7D072BE8D9BA7BFB7DC9
:1013B0001343BB73BB7B18461C37BD4680BC7047CC
:1013C00080B485B000AF0346FB71FB7903F00103E5
:1013D000FB73FB79DB015AB2FB799B015BB2534093
:1013E0005AB2FB795B015BB253405AB2FB791B01E5
:1013F0005BB253405AB2FB79DB005BB253405AB246
:10140000FB799B005BB253405AB2FB795B005BB245
:1014100053405BB2BB73FA7BBB7B9A4201D0012382
:1014200000E0002318461437BD4680BC704700BF5B
:1014300080B584B000AF78600023FB737B68002B1D
:1014400001D1012333E07B681B6C002B09D1786844
:1014500000F063F87B6800225A647B68002283F8FE
:101460003C207B681B6C03F01003002B18D17B68B9
:101470001B6C23F4885323F0020343F002027B68C1
:101480001A64786800F0DFFF7B6800225A647B688A
:101490001B6C23F0030343F001027B681A6401E034
:1014A0000123FB737B68002283F83C20FB7B1846FA
:1014B0001037BD4680BD80B584B000AF7860002392
:1014C000FB737B68002B01D1012322E07B681B6C3E
:1014D00043F002027B681A647B681B689A687B6829
:1014E0001B6822F001029A607B681B689B6803F00E
:1014F0000103002B08D1786800F018F87B680022FF
:101500005A647B6800221A647B68002283F83C20BE
:10151000FB7B18461037BD4680BD80B483B000AF5A
:10152000786000BF0C37BD4680BC704780B483B084
:1015300000AF786000BF0C37BD4680BC704780B4F8
:1015400085B000AF78600023BB607B6893F83C30C7
:10155000012B01D10223B2E07B68012283F83C20F9
:101560007B681B689B6803F00103012B18D07B6824
:101570001B689A687B681B6842F001029A60524BB4
:101580001B68524AA2FB03239A0C13465B001344C8
:10159000BB6002E0BB68013BBB60BB68002BF9D1BC
:1015A0007B681B689B6803F00103012B7AD17B6881
:1015B0001B6C23F4E06323F0010343F480727B6827
:1015C0001A647B681B685B6803F48063002B07D098
:1015D0007B681B6C23F4405343F480527B681A648D
:1015E0007B681B6C03F48053B3F5805F06D17B6886
:1015F0005B6C23F006027B685A6402E07B68002281
:101600005A647B68002283F83C20314BFB607B6886
:101610001B686FF022021A60FB685B6803F01F030F
:10162000002B2AD17B681B682A4A934215D07B681D
:101630001B68294A934205D1254B5B6803F01F03C1
:10164000002B0AD07B681B68244A934236D1204B7A
:101650005B6803F01003002B30D17B681B689B682C
:1016600003F04053002B29D17B681B689A687B6884
:101670001B6842F080429A6020E07B681B68154A34
:1016800093421BD17B681B689B6803F04053002B7F
:1016900014D17B681B689A687B681B6842F08042A3
:1016A0009A600BE07B681B6C43F010027B681A6445
:1016B0007B685B6C43F001027B685A640023184628
:1016C0001437BD4680BC70471000002083DE1B43EA
:1016D0000023014000200140002101400022014080
:1016E00080B483B000AF78607B6893F83C30012B06
:1016F00001D1022321E07B68012283F83C207B6832
:101700001B689A687B681B6822F001029A607B68FC
:101710001B689B6803F00103002B09D17B681B6CDD
:1017200023F4885323F0010343F001027B681A6419
:101730007B68002283F83C20002318460C37BD4606
:1017400080BC704780B584B000AF786039600023FA
:10175000FB607B681B689B6803F48063B3F5806F54
:1017600013D17B681B689B6803F48073B3F5807F9B
:101770000BD17B681B6C43F020027B681A647B688A
:10178000002283F83C20012363E001F0E5FEF860CD
:1017900021E03B68B3F1FF3F1DD03B68002B07D031
:1017A00001F0DAFE0246FB68D31A3A689A4212D276
:1017B0007B681B681B6803F00203022B0BD07B685D
:1017C0001B6C43F004027B681A647B68002283F878
:1017D0003C2003233DE07B681B681B6803F0020389
:1017E000022BD6D17B681B686FF012021A607B68EF
:1017F0001B6C43F400727B681A647B681B689B68EF
:1018000003F04053002B23D17B681B7E002B1FD19C
:101810007B681B68DB6A03F47003002B06D07B68CF
:101820001B689B6803F48063002B11D17B681B6CE1
:1018300023F480727B681A647B681B6C03F480530A
:10184000002B05D17B681B6C43F001027B681A6496
:10185000002318461037BD4680BD80B586B000AF66
:10186000F860B9607A6000237B6101F075FE7861F1
:1018700022E07B68B3F1FF3F1ED07B68002B07D0CE
:1018800001F06AFE02467B69D31A7A689A4213D243
:10189000FB681B681A68BB681340BA689A420BD091
:1018A000FB681B6C43F00402FB681A64FB680022AF
:1018B00083F83C20032328E0FB681B681A68BB6898
:1018C0001340BA689A42D4D1BB68012B0BD1FB6894
:1018D0001B6C43F48032FB681A64FB681B686FF072
:1018E00001021A6010E0FB681B6C43F48062FB6825
:1018F0001A64FB685B6C43F00202FB685A64FB6885
:101900001B686FF020021A60002318461837BD4686
:1019100080BD80B485B000AF78600023BB607B6879
:1019200093F83C30012B01D10223BDE07B680122FA
:1019300083F83C207B681B689B6803F00103012B44
:1019400018D07B681B689A687B681B6842F00102AC
:101950009A60584B1B68584AA2FB03239A0C134603
:101960005B001344BB6002E0BB68013BBB60BB682B
:10197000002BF9D17B681B689B6803F00103012BE6
:1019800040F085807B681B6C23F4E06323F0010347
:1019900043F480727B681A647B681B685B6803F49D
:1019A0008063002B07D07B681B6C23F4405343F407
:1019B00080527B681A647B681B6C03F48053B3F518
:1019C000805F06D17B685B6C23F006027B685A64FB
:1019D00002E07B6800225A647B68002283F83C2086
:1019E000364BFB607B681B686FF022021A607B68D5
:1019F0001B685B687A68126843F0806343F02003D9
:101A00005360FB685B6803F01F03002B2AD17B68DF
:101A10001B682B4A934215D07B681B68294A934266
:101A200005D1264B5B6803F01F03002B0AD07B68AF
:101A30001B68254A934236D1204B5B6803F01003A4
:101A4000002B30D17B681B689B6803F04053002B50
:101A500029D17B681B689A687B681B6842F08042CA
:101A60009A6020E07B681B68154A93421BD17B6813
:101A70001B689B6803F04053002B14D17B681B68E4
:101A80009A687B681B6842F080429A600BE07B6832
:101A90001B6C43F010027B681A647B685B6C43F03C
:101AA00001027B685A64002318461437BD4680BC87
:101AB000704700BF1000002083DE1B43002301405D
:101AC00000200140002101400022014080B483B089
:101AD00000AF78607B6893F83C30012B01D1022382
:101AE0002BE07B68012283F83C207B681B689A68A6
:101AF0007B681B6822F001029A607B681B689B6808
:101B000003F00103002B13D17B681B685B687A68C4
:101B1000126823F0806323F0200353607B681B6C02
:101B200023F4885323F0010343F001027B681A6415
:101B30007B68002283F83C20002318460C37BD4602
:101B400080BC704780B584B000AF78600023FB6034
:101B50000023BB607B681B681B6803F00203022B39
:101B60000CBF01230023DBB2FB607B681B685B6852
:101B700003F02003202B0CBF01230023DBB2BB604A
:101B8000FB68002B49D0BB68002B46D07B681B6CE0
:101B900003F01003002B05D17B681B6C43F400722B
:101BA0007B681A647B681B689B6803F04053002BBA
:101BB0002BD17B681B7E002B27D17B681B68DB6ADF
:101BC00003F47003002B06D07B681B689B6803F44A
:101BD0008063002B19D17B681B685A687B681B687F
:101BE00022F020025A607B681B6C23F480727B68B1
:101BF0001A647B681B6C03F48053002B05D17B684F
:101C00001B6C43F001027B681A64786800F050FA9C
:101C10007B681B686FF012021A607B681B681B6888
:101C200003F00403042B0CBF01230023DBB2FB6091
:101C30007B681B685B6803F08003802B0CBF01236B
:101C40000023DBB2BB60FB68002B57D0BB68002BC6
:101C500054D07B681B6C03F01003002B05D17B680C
:101C60001B6C43F400527B681A647B681B689B689A
:101C700003F44013002B39D17B681B689B6B03F482
:101C80004013002B06D07B681B689B6803F48063BD
:101C9000002B2BD17B681B685B6803F48063002BEF
:101CA00024D17B681B689B6803F04053002B1DD137
:101CB0007B681B7E002B19D17B681B685A687B6888
:101CC0001B6822F080025A607B681B6C23F48052F0
:101CD0007B681A647B681B6C03F48073002B05D14E
:101CE0007B681B6C43F001027B681A64786801F022
:101CF00037F97B681B686FF00C021A607B681B6801
:101D00001B6803F00103012B0CBF01230023DBB28E
:101D1000FB607B681B685B6803F04003402B0CBFD3
:101D200001230023DBB2BB60FB68002B17D0BB682C
:101D3000002B14D07B681B681B6803F00103012B88
:101D40000DD17B681B6C43F480327B681A64786821
:101D500000F0C0F97B681B686FF001021A607B68B5
:101D60001B681B6803F02003202B0CBF01230023FA
:101D7000DBB2FB607B681B685B6803F08063B3F1D8
:101D8000806F0CBF01230023DBB2BB60FB68002B1C
:101D900015D0BB68002B12D07B685B6C43F002024D
:101DA0007B685A647B681B686FF020021A60786851
:101DB00000F099F97B681B686FF020021A6000BF81
:101DC0001037BD4680BD80B586B000AFF860B96001
:101DD0007A6000233B61FB6893F83C30012B01D112
:101DE0000223E9E0FB68012283F83C20FB681B68C2
:101DF0009B6803F00103012B18D0FB681B689A68ED
:101E0000FB681B6842F001029A606D4B1B686D4ACB
:101E1000A2FB03239A0C13465B0013443B6102E0D0
:101E20003B69013B3B613B69002BF9D1FB681B68B7
:101E30009B6803F48073B3F5807F07D1FB681B6850
:101E40009A68FB681B6822F480729A60FB681B68C2
:101E50009B6803F00103012B40F0A180FB681B6C21
:101E600023F4E06323F0010343F48072FB681A64F7
:101E7000FB681B685B6803F48063002B07D0FB687A
:101E80001B6C23F4405343F48052FB681A64FB68D4
:101E90001B6C03F48053B3F5805F06D1FB685B6C69
:101EA00023F00602FB685A6402E0FB6800225A64D1
:101EB000FB68002283F83C20434B7B61FB689B6BF3
:101EC000424ADA63FB689B6B414A1A64FB689B6B6E
:101ED000404ADA64FB681B686FF022021A60FB68F4
:101EE0001B685A68FB681B6842F080625A60FB6896
:101EF0001B689A68FB681B6842F480729A60FB68F2
:101F0000986BFB681B684C331946BA687B6802F013
:101F100076FD7B695B6803F01F03002B2AD1FB6809
:101F20001B682D4A934215D0FB681B682B4A9342CD
:101F300005D1254B5B6803F01F03002B0AD0FB681B
:101F40001B68274A934236D11F4B5B6803F010038E
:101F5000002B30D1FB681B689B6803F04053002BBB
:101F600029D1FB681B689A68FB681B6842F08042B5
:101F70009A6020E0FB681B68174A93421BD1FB68FC
:101F80001B689B6803F04053002B14D1FB681B684F
:101F90009A68FB681B6842F080429A600BE0FB681D
:101FA0001B6C43F01002FB681A64FB685B6C43F027
:101FB0000102FB685A64002318461837BD4680BDED
:101FC0001000002083DE1B43002301403D26000853
:101FD000F7260008132700080020014000210140D7
:101FE0000022014080B584B000AF78600023FB730D
:101FF0007B6893F83C30012B01D1022348E07B68D9
:10200000012283F83C207B681B689A687B681B6808
:1020100022F001029A607B681B689B6803F0010351
:10202000002B30D17B681B689A687B681B6822F4A0
:1020300080729A607B689B6B93F83530DBB2022B21
:102040000FD17B689B6B184602F031FD0346FB7392
:10205000FB7B002B05D07B681B6C43F040027B6848
:102060001A647B681B685A687B681B6822F0806270
:102070005A607B681B6C23F4885323F0010343F000
:1020800001027B681A647B68002283F83C20FB7B9A
:1020900018461037BD4680BD80B483B000AF78606D
:1020A0007B681B68DB6C18460C37BD4680BC7047EC
:1020B00080B483B000AF786000BF0C37BD4680BCF1
:1020C000704780B483B000AF786000BF0C37BD4666
:1020D00080BC704780B483B000AF786000BF0C371D
:1020E000BD4680BC704780B483B000AF786000BF4D
:1020F0000C37BD4680BC704780B485B000AF7860B7
:1021000039600023BB607B6893F83C30012B01D120
:10211000022313E17B68012283F83C203B681B68A3
:10212000092B25D97B681B68D9683B681B689BB263
:102130001A4613465B0013441E3B072202FA03F3C0
:10214000DA437B681B680A40DA607B681B68D968E1
:102150003B689A683B681B689BB2184603465B0065
:1021600003441E3B9A407B681B680A43DA6022E006
:102170007B681B6819693B681B689BB21A4613464B
:102180005B001344072202FA03F3DA437B681B68FF
:102190000A401A617B681B6819693B689A683B684A
:1021A0001B689BB2184603465B0003449A407B6859
:1021B0001B680A431A613B685B68062B24D87B685E
:1021C0001B68596B3B685A6813469B001344053BD8
:1021D0001F2202FA03F3DA437B681B680A405A6342
:1021E0007B681B68596B3B681B689BB218463B6851
:1021F0005A6813469B001344053B00FA03F27B68C0
:102200001B680A435A634CE03B685B680C2B24D87C
:102210007B681B68196B3B685A6813469B00134424
:10222000233B1F2202FA03F3DA437B681B680A4050
:102230001A637B681B68196B3B681B689BB2184666
:102240003B685A6813469B001344233B00FA03F291
:102250007B681B680A431A6323E07B681B68D96AA2
:102260003B685A6813469B001344413B1F2202FA05
:1022700003F3DA437B681B680A40DA627B681B68F9
:10228000D96A3B681B689BB218463B685A6813467C
:102290009B001344413B00FA03F27B681B680A432E
:1022A000DA62294BFB607B681B68284A93420FD196
:1022B0003B681B68122B0BD1FB685B6823F40002A0
:1022C000FB685A60FB685B6843F48002FB685A60F5
:1022D0007B681B681D4A93422BD13B681B681C4AD4
:1022E000934203D03B681B68112B22D1FB685B68CB
:1022F00023F48002FB685A60FB685B6843F40002C9
:10230000FB685A603B681B68114A934211D1114B1C
:102310001B68114AA2FB03239A0C13469B0013442B
:102320005B00BB6002E0BB68013BBB60BB68002B8D
:10233000F9D17B68002283F83C200023184614372B
:10234000BD4680BC704700BF002301400020014013
:10235000120000101000002083DE1B4380B483B005
:1023600000AF786039607B6893F83C30012B01D175
:1023700002234DE07B68012283F83C203B681B7CF4
:10238000012B08D17B681B685A687B681B6842F088
:1023900040025A6007E07B681B685A687B681B68CC
:1023A00022F040025A607B681B685B687A6812689A
:1023B00023F4400323F4007353607B681B6859685F
:1023C0003B681A687B681B680A435A607B681B6815
:1023D0003A6852685A627B681B683A6892689A62E7
:1023E0007B681B685A687B681B6822F01F025A6072
:1023F0007B681B685A683B68DB689BB219467B6840
:102400001B680A435A607B68002283F83C20002343
:1024100018460C37BD4680BC704780B483B000AF0F
:1024200078607B681B6C18460C37BD4680BC7047D3
:1024300080B483B000AF78607B685B6C18460C3763
:10244000BD4680BC704780B485B000AF7860794BE2
:10245000FB60FB685B6823F44032FB685A60FB68F2
:102460005A687B685B681A43FB685A607B681B6824
:102470005A687B681B6822F480725A607B681B680C
:1024800059687B681B691A027B681B680A435A609B
:102490007B681B685A687B681B6822F040725A6030
:1024A0007B681B6859687B689A687B681B680A436D
:1024B0005A607B681B689A687B681B6822F400621C
:1024C0009A607B681B6899687B68DA687B681B6820
:1024D0000A439A607B689B6A574A934222D07B6882
:1024E0001B689A687B681B6822F070629A607B6840
:1024F0001B6899687B689A6A7B681B680A439A60C4
:102500007B681B689A687B681B6822F040529A605F
:102510007B681B6899687B68DA6A7B681B680A437A
:102520009A600FE07B681B689A687B681B6822F0E2
:1025300070629A607B681B689A687B681B6822F0EF
:1025400040529A607B681B689A687B681B6822F01F
:1025500002029A607B681B6899687B681B7E5A0040
:102560007B681B680A439A607B6893F82030002BD5
:102570001BD07B681B685A687B681B6842F400624A
:102580005A607B681B685A687B681B6822F460424B
:102590005A607B681B6859687B685B6A013B5A0319
:1025A0007B681B680A435A6007E07B681B685A68AF
:1025B0007B681B6822F400625A607B681B68DA6AD9
:1025C0007B681B6822F47002DA627B681B68D96A38
:1025D0007B68DB69013B1A057B681B680A43DA628A
:1025E0007B681B689A687B681B6822F400729A609B
:1025F0007B681B6899687B6893F830305A027B6867
:102600001B680A439A607B681B689A687B681B6832
:1026100022F480629A607B681B6899687B685B69BA
:102620009A027B681B680A439A6000BF1437BD4654
:1026300080BC7047002301400100000F80B584B0CA
:1026400000AF78607B689B6BFB60FB681B6C03F0E2
:102650005003002B3CD1FB681B6C43F40072FB68F9
:102660001A64FB681B689B6803F04053002B2BD156
:10267000FB681B7E002B27D1FB681B68DB6A03F419
:102680007003002B06D0FB681B689B6803F4806313
:10269000002B19D1FB681B685A68FB681B6822F085
:1026A00020025A60FB681B6C23F48072FB681A647A
:1026B000FB681B6C03F48053002B05D1FB681B6C7B
:1026C00043F00102FB681A64F868FFF7F1FC0EE0C2
:1026D000FB681B6C03F01003002B03D0F868FFF7B6
:1026E00002FD04E0FB689B6BDB6C7868984700BFD9
:1026F0001037BD4680BD80B584B000AF78607B6880
:102700009B6BFB60F868FFF7DCFC00BF1037BD4631
:1027100080BD80B584B000AF78607B689B6BFB6048
:10272000FB6840221A64FB685B6C43F00402FB68A0
:102730005A64F868FFF7D7FC00BF1037BD4680BD6C
:1027400080B487B000AF78600023BB6000237B615A
:1027500000233B617B6893F83C30012B01D10223BD
:10276000AAE07B68012283F83C207B681B689B6899
:1027700003F00103012B18D07B681B689A687B6803
:102780001B6842F001029A604E4B1B684E4AA2FB46
:1027900003239A0C13465B001344BB6002E0BB6842
:1027A000013BBB60BB68002BF9D17B681B689B6851
:1027B00003F00103012B72D17B681B6C23F440539F
:1027C00023F0010343F480527B681A647B681B6C1E
:1027D00003F48073002B02D17B6800225A647B686B
:1027E000002283F83C207B681B686FF004021A60AB
:1027F000364BFB60FB685B6803F01F03002B24D1A2
:102800007B681B689B6803F44013002B0CBF0123FB
:102810000023DBB27B617B681B685B6803F4806329
:10282000002B0CBF01230023DBB23B617B69002B33
:1028300041D03B69002B3ED07B681B689A687B685F
:102840001B6842F480029A6035E07B681B689B68D5
:1028500003F44013002B0CBF01230023DBB27B6188
:102860007B681B685B6803F48063002B0CBF01234B
:102870000023DBB23B617B681B68154A93421AD187
:102880007B69002B17D03B69002B14D07B681B6839
:102890009A687B681B6842F480029A600BE07B6850
:1028A0001B6C43F010027B681A647B685B6C43F01E
:1028B00001027B685A64002318461C37BD4680BC61
:1028C000704700BF1000002083DE1B43002301403F
:1028D0000020014080B487B000AF78600023BB6067
:1028E00000237B6100233B617B6893F83C30012B24
:1028F00001D10223B2E07B68012283F83C207B688F
:102900001B689B6803F00103012B18D07B681B68D0
:102910009A687B681B6842F001029A60524B1B6800
:10292000524AA2FB03239A0C13465B001344BB607C
:1029300002E0BB68013BBB60BB68002BF9D17B6840
:102940001B689B6803F00103012B7AD17B681B6C29
:1029500023F4405323F0010343F480527B681A644C
:102960007B681B6C03F48073002B02D17B68002210
:102970005A647B68002283F83C207B681B686FF0F8
:1029800004021A607B681B685A687B681B6842F007
:1029900080025A60364BFB60FB685B6803F01F03E4
:1029A000002B24D17B681B689B6803F44013002B29
:1029B0000CBF01230023DBB27B617B681B685B6873
:1029C00003F48063002B0CBF01230023DBB23B61C7
:1029D0007B69002B41D03B69002B3ED07B681B6894
:1029E0009A687B681B6842F480029A6035E07B68D5
:1029F0001B689B6803F44013002B0CBF01230023CA
:102A0000DBB27B617B681B685B6803F48063002B2F
:102A10000CBF01230023DBB23B617B681B68154AB6
:102A200093421AD17B69002B17D03B69002B14D03D
:102A30007B681B689A687B681B6842F480029A6016
:102A40000BE07B681B6C43F010027B681A647B68A8
:102A50005B6C43F001027B685A64002318461C3704
:102A6000BD4680BC704700BF1000002083DE1B43C2
:102A7000002301400020014080B485B000AF7860A1
:102A80000023FB737B6893F83C30012B01D10223B8
:102A900037E07B68012283F83C207B681B6C03F4E1
:102AA0008073002B20D17B681B685B6803F4806314
:102AB000002B19D17B681B689A687B681B6822F021
:102AC00001029A607B681B689B6803F00103002B7E
:102AD00012D17B681B6C23F4885323F0010343F06D
:102AE00001027B681A6407E07B681B6C43F02002DC
:102AF0007B681A640123FB737B68002283F83C2007
:102B0000FB7B18461437BD4680BC704780B584B047
:102B100000AF786039600023FB6000F01DFDF860B5
:102B20001EE03B68B3F1FF3F1AD03B68002B07D093
:102B300000F012FD0246FB68D31A3A689A420FD29F
:102B40007B681B681B6803F00403042B08D07B68B8
:102B500004221A647B68002283F83C2003234BE0A4
:102B60007B681B681B6803F00403042BD9D17B68C6
:102B70001B686FF00C021A607B681B6C43F40052F8
:102B80007B681A647B681B689B6803F44013002B06
:102B900031D17B681B689B6B03F44013002B06D07C
:102BA0007B681B689B6803F48063002B23D17B68E0
:102BB0001B685B6803F48063002B1CD17B681B6877
:102BC0009B6803F04053002B15D17B681B7E002BC4
:102BD00011D17B681B6C23F480527B681A647B687C
:102BE0001B6C03F48073002B05D17B681B6C43F0D6
:102BF00001027B681A64002318461037BD4680BD69
:102C000080B485B000AF78600023FB737B6893F8D5
:102C10003C30012B01D102233FE07B68012283F885
:102C20003C207B681B6C03F48073002B28D17B68ED
:102C30001B685B6803F48063002B21D17B681B68F1
:102C40009A687B681B6822F001029A607B681B68A7
:102C50009B6803F00103002B1AD17B681B685A683C
:102C60007B681B6822F080025A607B681B6C23F42F
:102C7000885323F0010343F001027B681A6407E0E4
:102C80007B681B6C43F020027B681A640123FB7392
:102C90007B68002283F83C20FB7B18461437BD4636
:102CA00080BC704780B485B000AF78603960002385
:102CB000FB607B681B686FF004021A603B68013B95
:102CC000032B1FD801A252F823F000BFFB2C0008F1
:102CD000F12C0008E72C0008DD2C00087B681B683D
:102CE0009B6CFB600FE07B681B685B6CFB600AE021
:102CF0007B681B681B6CFB6005E07B681B68DB6BFB
:102D0000FB6000E000BFFB6818461437BD4680BC7E
:102D1000704780B586B000AFF860B9607A60002374
:102D20003B61FB6893F83C30012B01D10223ABE0FF
:102D3000FB68012283F83C20FB681B689B6803F05A
:102D40000103012B18D0FB681B689A68FB681B689D
:102D500042F001029A604E4B1B684E4AA2FB0323CD
:102D60009A0C13465B0013443B6102E03B69013B54
:102D70003B613B69002BF9D1FB681B689B6803F042
:102D80000103012B73D1FB681B6C23F4E06323F078
:102D9000010343F48072FB681A64FB681B685B687C
:102DA00003F48063002B07D0FB681B6C23F44053B3
:102DB00043F48052FB681A64FB681B6C03F4805375
:102DC000B3F5805F06D1FB685B6C23F00602FB68FD
:102DD0005A6402E0FB6800225A64FB68002283F810
:102DE0003C20FB689B6B2C4ADA63FB689B6B2B4A8D
:102DF0001A64FB689B6B2A4ADA64FB681B686FF0F5
:102E000002021A60FB681B685A68FB681B6842F084
:102E100080625A60234B7B61FB6893F83030002B53
:102E200006D07B695B6843F400527B695A6005E019
:102E30007B695B6823F400527B695A60FB68986B7E
:102E40007B6908331946BA687B6801F0D8FDFB68D6
:102E50001B689B6803F04053002B14D1FB681B6870
:102E60009A68FB681B6842F080429A600BE0FB683E
:102E70001B6C43F01002FB681A64FB685B6C43F048
:102E80000102FB685A64002318461837BD4680BD0E
:102E90001000002083DE1B4331330008D7330008C5
:102EA000F33300080023014080B584B000AF7860A0
:102EB0000023FB737B6893F83C30012B01D1022384
:102EC00038E07B68012283F83C207B681B689A68A5
:102ED0007B681B6822F001029A60184BBB607B681C
:102EE0001B689B6803F00103002B1ED1BB685B6865
:102EF00023F40052BB685A607B689B6B184601F054
:102F0000D6FD0346FB737B681B685A687B681B68A9
:102F100022F080625A607B681B6C23F4885323F094
:102F2000010343F001027B681A647B68002283F886
:102F30003C20FB7B18461037BD4680BD0023014076
:102F400080B485B000AF7860044BFB60FB689B6881
:102F500018461437BD4680BC704700BF00230140AF
:102F600080B483B000AF786000BF0C37BD4680BC32
:102F7000704780B485B000AF786039607B6893F8A3
:102F80003C30012B01D102237EE17B68012283F8D2
:102F90003C203B681B68092B25D97B681B68D968D6
:102FA0003B681B689BB21A4613465B0013441E3BEA
:102FB000072202FA03F3DA437B681B680A40DA60EF
:102FC0007B681B68D9683B689A683B681B689BB242
:102FD000184603465B0003441E3B9A407B681B680F
:102FE0000A43DA6022E07B681B6819693B681B684A
:102FF0009BB21A4613465B001344072202FA03F3FE
:10300000DA437B681B680A401A617B681B68196990
:103010003B689A683B681B689BB2184603465B0096
:1030200003449A407B681B680A431A617B681B68EB
:103030009A6B7B681B6822F440129A637B681B685A
:10304000996B3B681B69013B1A057B681B680A4347
:103050009A637B681B68996B3B685B68DAB23B6874
:103060001B69DBB2D31ADBB20333DBB21A46134659
:103070009B0013441F2202FA03F3DA437B681B68A8
:103080000A409A637B681B68996B3B681B689BB21C
:1030900018463B685B68DAB23B681B69DBB2D31A3F
:1030A000DBB20333DBB21A4613469B00134400FA2B
:1030B00003F27B681B680A439A633B689B69754A05
:1030C000934222D07B681B689A687B681B6822F455
:1030D00070229A607B681B6899683B689A697B6874
:1030E0001B680A439A607B681B689A687B681B6848
:1030F00022F440129A607B681B6899683B68DA6921
:103100007B681B680A439A600FE07B681B689A68BB
:103110007B681B6822F470229A607B681B689A683F
:103120007B681B6822F440129A603B685B7D002B31
:1031300008D07B681B685A687B681B6842F4806211
:103140005A6007E07B681B685A687B681B6822F43A
:1031500080625A603B681B7D002B08D07B681B682F
:103160005A687B681B6842F480525A6007E07B68AB
:103170001B685A687B681B6822F480525A603B685F
:103180005B68032B2ED0032B40D8012B02D0022BDF
:1031900014D03BE07B681B685B697A68126823F493
:1031A0007F6323F00F0353617B681B6859693B6899
:1031B000DA687B681B680A435A613BE07B681B68DE
:1031C0009B697A68126823F47F6323F00F0393618D
:1031D0007B681B6899693B68DA687B681B680A43EF
:1031E0009A6127E07B681B68DB697A68126823F4C0
:1031F0007F6323F00F03D3617B681B68D9693B6849
:10320000DA687B681B680A43DA6113E07B681B6835
:103210001B6A7A68126823F47F6323F00F0313623A
:103220007B681B68196A3B68DA687B681B680A431D
:103230001A6200BF184BFB607B681B68174A9342F9
:1032400009D13B681B68122B05D1FB685B6843F40E
:103250008002FB685A607B681B68104A93420ED15B
:103260003B681B680E4A934203D03B681B68112BD6
:1032700005D1FB685B6843F40002FB685A607B6819
:10328000002283F83C20002318461437BD4680BC3A
:10329000704700BF01000F000023014000200140E3
:1032A0001200001080B485B000AF786039607B6890
:1032B00093F83C30012B01D1022331E07B680122DD
:1032C00083F83C20194BFB60FB685B6823F01F020E
:1032D000FB685A60FB685A683B681B681A43FB68C6
:1032E0005A60FB685B6823F44042FB685A60FB68E5
:1032F0005A683B685B681A43FB685A60FB685B6806
:1033000023F47062FB685A60FB685A683B689B68EC
:103310001A43FB685A607B68002283F83C20002334
:1033200018461437BD4680BC704700BF00230140DB
:1033300080B584B000AF78607B689B6BFB60FB68F6
:103340001B6C03F05003002B3CD1FB681B6C43F457
:103350000072FB681A64FB681B689B6803F04053AB
:10336000002B2BD1FB681B7E002B27D1FB681B6831
:10337000DB6A03F47003002B06D0FB681B689B68B4
:1033800003F48063002B19D1FB681B685A68FB6843
:103390001B6822F020025A60FB681B6C23F48072C9
:1033A000FB681A64FB681B6C03F48053002B05D187
:1033B000FB681B6C43F00102FB681A64F868FEF7B7
:1033C00077FE04E0FB689B6BDB6C7868984700BF76
:1033D0001037BD4680BD80B584B000AF78607B6893
:1033E0009B6BFB60F868FEF76CFE00BF1037BD46B4
:1033F00080BD80B584B000AF78607B689B6BFB605C
:10340000FB6840221A64FB685B6C43F00402FB68B3
:103410005A64F868FEF767FE00BF1037BD4680BDEE
:1034200080B500AF0E4B1B680D4A43F40073136068
:103430000B4B1B680A4A43F480631360084B1B68FC
:10344000074A43F480731360032000F0ADFB0F20A4
:1034500000F040F800F032F80023184680BD00BFAD
:10346000003C024080B500AF134B4FF0FF321A62B0
:10347000114B00221A62104B4FF0FF325A620E4B72
:1034800000225A620C4B4FF0FF321A610A4B0022A5
:103490001A61094B4FF0FF325A61074B00225A6103
:1034A000054B4FF0FF329A61034B00229A6100F006
:1034B0000BF80023184680BD0038024080B400AFEE
:1034C00000BFBD4680BC704780B400AF00BFBD46A2
:1034D00080BC704780B582B000AF7860124B1A682C
:1034E000124B1B7819464FF47A73B3FBF1F3B2FB1E
:1034F000F3F3184600F09FFB0346002B01D0012395
:103500000EE07B680F2B0AD8002279684FF0FF305D
:1035100000F055FB064A7B681360002300E001239E
:1035200018460837BD4680BD100000200800002066
:103530000400002080B400AF054B1B781A46054BF1
:103540001B681344034A136000BFBD4680BC70472C
:1035500008000020B80A002080B400AF024B1B68AE
:103560001846BD4680BC7047B80A002080B400AF42
:10357000024B1B681846BD4680BC70470400002003
:1035800080B584B000AF0346FB710023FB730E4B84
:103590001B78FA799A4212D00B4B1B78BB730A4AFC
:1035A000FB791370094B1B681846FFF793FF03461E
:1035B000FB73FB7B002B02D0034ABB7B1370FB7BAE
:1035C00018461037BD4680BD0800002004000020CA
:1035D00080B400AF024B1B781846BD4680BC7047D4
:1035E0000800002080B584B000AF7860FFF7B4FF1A
:1035F000B8607B68FB60FB68B3F1FF3F05D00A4B06
:103600001B781A46FB681344FB6000BFFFF7A4FF5A
:103610000246BB68D31AFA689A42F7D800BF00BFC7
:103620001037BD4680BD00BF0800002080B400AF49
:10363000044B1B68034A23F00203136000BFBD461E
:1036400080BC704710E000E080B400AF044B1B6802
:10365000034A43F00203136000BFBD4680BC7047BD
:1036600010E000E080B400AF024B1846BD4680BCBD
:10367000704700BF000D070180B400AF034B1B680B
:103680001B0C1846BD4680BC704700BF002004E0FC
:1036900080B400AF034B1B68C3F30B031846BD4651
:1036A00080BC7047002004E080B400AF044B5B682E
:1036B000034A43F00103536000BFBD4680BC70471E
:1036C000002004E080B400AF044B5B68034A23F0A1
:1036D0000103536000BFBD4680BC7047002004E07A
:1036E00080B400AF044B5B68034A43F002035360AD
:1036F00000BFBD4680BC7047002004E080B400AF2E
:10370000044B5B68034A23F00203536000BFBD46CD
:1037100080BC7047002004E080B400AF044B5B68BD
:10372000034A43F00403536000BFBD4680BC7047AA
:10373000002004E080B400AF044B5B68034A23F030
:103740000403536000BFBD4680BC7047002004E006
:1037500080B400AF034B01221A6000BFBD4680BC9D
:10376000704700BF0004274280B400AF034B002223
:103770001A6000BFBD4680BC704700BF00042742EE
:1037800080B400AF024B1B681846BD4680BC704732
:10379000107AFF1F80B400AF024B1B681846BD466D
:1037A00080BC7047147AFF1F80B400AF024B1B68C7
:1037B0001846BD4680BC7047187AFF1F80B400AF22
:1037C000034B01221A6000BFBD4680BC704700BF9A
:1037D0002000274280B400AF034B00221A6000BFD4
:1037E000BD4680BC704700BF2000274280B485B032
:1037F00000AF78607B6803F00703FB600C4BDB686D
:10380000BB60BA684FF6FF031340BB60FB681A0247
:10381000BB68134343F0BF6343F40033BB60044A07
:10382000BB68D36000BF1437BD4680BC704700BF83
:1038300000ED00E080B400AF044BDB681B0A03F02E
:1038400007031846BD4680BC704700BF00ED00E08E
:1038500080B483B000AF0346FB7197F90730002BAB
:103860000BDBFB7903F01F02064997F907305B0970
:10387000012000FA02F241F8232000BF0C37BD46B8
:1038800080BC704700E100E080B483B000AF034625
:10389000FB7197F90730002B12DBFB7903F01F0255
:1038A0000A4997F907305B09012000FA02F2203338
:1038B00041F82320BFF34F8F00BFBFF36F8F00BFCE
:1038C00000BF0C37BD4680BC704700BF00E100E080
:1038D00080B483B000AF0346FB7197F90730002B2B
:1038E0000EDB0A4A97F907305B09403352F8232070
:1038F000FB7903F01F0322FA03F303F0010300E056
:10390000002318460C37BD4680BC704700E100E03C
:1039100080B483B000AF0346FB7197F90730002BEA
:103920000CDBFB7903F01F02074997F907305B09AD
:10393000012000FA02F2403341F8232000BF0C3787
:10394000BD4680BC704700BF00E100E080B483B09A
:1039500000AF0346FB7197F90730002B0CDBFB79B6
:1039600003F01F02074997F907305B09012000FAAD
:1039700002F2603341F8232000BF0C37BD4680BC03
:10398000704700BF00E100E080B483B000AF0346A1
:10399000FB7197F90730002B0EDB0A4A97F90730C5
:1039A0005B09803352F82320FB7903F01F0322FACE
:1039B00003F303F0010300E0002318460C37BD4673
:1039C00080BC704700E100E080B483B000AF0346E4
:1039D0003960FB7197F90730002B0ADB3B68DAB2DC
:1039E0000C4997F907301201D2B20B4483F8002337
:1039F0000AE03B68DAB20849FB7903F00F03043BA5
:103A00001201D2B20B441A7600BF0C37BD4680BCFF
:103A1000704700BF00E100E000ED00E080B483B03B
:103A200000AF0346FB7197F90730002B09DB0C4A06
:103A300097F90730134493F80033DBB21B09DBB26C
:103A400009E0084AFB7903F00F03043B13441B7E93
:103A5000DBB21B09DBB218460C37BD4680BC704791
:103A600000E100E000ED00E080B489B000AFF86054
:103A7000B9607A60FB6803F00703FB61FB69C3F17F
:103A80000703042B28BF0423BB61FB690433062B07
:103A900002D9FB69033B00E000237B614FF0FF325A
:103AA000BB6902FA03F3DA43BB681A407B699A40A8
:103AB0004FF0FF317B6901FA03F3D9437B680B4078
:103AC000134318462437BD4680BC704780B489B084
:103AD00000AFF860B9607A603B60BB6803F0070331
:103AE000FB61FB69C3F10703042B28BF0423BB61FF
:103AF000FB690433062B02D9FB69033B00E000237A
:103B00007B61FA687B69DA404FF0FF31BB6901FAEB
:103B100003F3DB431A407B681A604FF0FF327B6986
:103B200002FA03F3DA43FB681A403B681A6000BFED
:103B30002437BD4680BC704780B400AFBFF34F8FC1
:103B400000BF064BDB6803F4E0620449044B1343F7
:103B5000CB60BFF34F8F00BF00BFFDE700ED00E07B
:103B60000400FA0580B582B000AF78607B68013B45
:103B7000B3F1807F01D301230FE00A4A7B68013B48
:103B800053600F214FF0FF30FFF71EFF054B00225F
:103B90009A60044B07221A60002318460837BD4676
:103BA00080BD00BF10E000E080B582B000AF78605B
:103BB0007868FFF71BFE00BF0837BD4680BD80B5A3
:103BC00086B000AF0346B9607A60FB7300237B6167
:103BD000FFF730FE78617A68B9687869FFF744FFCB
:103BE000024697F90F3011461846FFF7EDFE00BF69
:103BF0001837BD4680BD80B582B000AF0346FB716B
:103C000097F907301846FFF723FE00BF0837BD4677
:103C100080BD80B582B000AF0346FB7197F90730D5
:103C20001846FFF731FE00BF0837BD4680BD80B59E
:103C300000AFFFF781FF80B582B000AF7860786891
:103C4000FFF790FF034618460837BD4680BD80B495
:103C500000AFBFF35F8F00BF064B5B6A054A23F4DA
:103C600080335362044B00225A6000BFBD4680BCC3
:103C7000704700BF00ED00E090ED00E080B483B03D
:103C800000AF78600A4A7B6843F001035360094B38
:103C90005B6A084A43F480335362BFF34F8F00BF1F
:103CA000BFF36F8F00BF00BF0C37BD4680BC7047AD
:103CB00090ED00E000ED00E080B483B000AF7860EC
:103CC0007B685A781D4B9A607B681B78002B29D043
:103CD0001A4A7B685B68D3607B681B7B1A077B682A
:103CE000DB7A1B061A437B689B7ADB041A437B68EA
:103CF0005B7B9B041A437B689B7B5B041A437B685A
:103D0000DB7B1B041A437B685B7A1B021A437B68CC
:103D10001B7A5B0013437A6812781146074A0B43FB
:103D2000136105E0054B0022DA60044B00221A61A2
:103D300000BF0C37BD4680BC704700BF90ED00E06F
:103D400080B500AFFFF776FD0346184680BD80B50D
:103D500084B000AFB9607A603B600346FB7397F9AB
:103D60000F301846FFF75AFE3B687A68B968FFF7CC
:103D7000ADFE00BF1037BD4680BD80B582B000AF3C
:103D80000346FB7197F907301846FFF7C1FD00BFE6
:103D90000837BD4680BD80B582B000AF0346FB71D9
:103DA00097F907301846FFF793FD03461846083782
:103DB000BD4680BD80B582B000AF0346FB7197F968
:103DC00007301846FFF7C2FD00BF0837BD4680BD6B
:103DD00080B582B000AF0346FB7197F907301846F3
:103DE000FFF7D2FD034618460837BD4680BD80B4B4
:103DF00083B000AF78607B68042B06D1084B1B684A
:103E0000074A43F00403136005E0054B1B68044AAE
:103E100023F00403136000BF0C37BD4680BC70471D
:103E200010E000E080B500AF00F002F800BF80BDF8
:103E300080B400AF00BFBD4680BC704780B582B083
:103E400000AF78607B68002B01D1012314E07B6810
:103E50001B79DBB2002B05D17B6800225A71786890
:103E600000F02BF87B6802221A717B6800221A612D
:103E70007B6801221A71002318460837BD4680BDB1
:103E800080B582B000AF78607B68002B01D1012340
:103E90000FE07B6802221A71786800F017F87B68DF
:103EA00000221A617B6800221A717B6800225A7115
:103EB000002318460837BD4680BD80B483B000AFEC
:103EC000786000BF0C37BD4680BC704780B483B0BB
:103ED00000AF786000BF0C37BD4680BC704780B42F
:103EE00083B000AF786039607B685B79012B01D1CA
:103EF000022340E07B6801225A717B6802221A711A
:103F00007B681B6819683B6803F0100301229A4024
:103F10007B681B680A431A603B68002B0FD17B68E3
:103F20001B681B6803F03C033C2B1DD17B681B689E
:103F30005A687B681B6842F001025A6014E07B6893
:103F40001B681B6803F470123B6803F010033C21EC
:103F500001FA03F39A4207D17B681B685A687B68B1
:103F60001B6842F002025A607B6801221A717B686A
:103F700000225A71002318460C37BD4680BC70479A
:103F800080B483B000AF786039607B681B681968C3
:103F90003B6803F01003012202FA03F3DA437B6863
:103FA0001B680A401A607B6801221A7100231846B8
:103FB0000C37BD4680BC704780B586B000AFF86056
:103FC000B9607A603B600023FB7500233B61FB68AE
:103FD0005B79012B01D10223ABE0FB6801225A710E
:103FE000FB6802221A71BB68002B2FD1FB689B680B
:103FF000524ADA63FB689B68514A1A64FB689B6803
:10400000504ADA64FB681B681A68FB681B6842F454
:1040100080521A603B6A082B13D03B6A082B45D8A4
:104020003B6A002B03D03B6A042B05D03EE0FB68C3
:104030001B6808333B613CE0FB681B680C333B6149
:1040400037E0FB681B6810333B6132E0FB68DB68DC
:104050003D4ADA63FB68DB683C4A1A64FB68DB684C
:104060003B4ADA64FB681B681A68FB681B6842F00D
:1040700080521A603B6A082B13D03B6A082B17D872
:104080003B6A002B03D03B6A042B05D010E0FB6891
:104090001B6814333B610CE0FB681B6818333B6101
:1040A00007E0FB681B681C333B6102E000BF00E0D7
:1040B00000BFBB68002B11D1FB681B681A68FB6846
:1040C0001B6842F400521A60FB68986879683B6884
:1040D0003A6900F094FC0346FB7510E0FB681B682E
:1040E0001A68FB681B6842F000521A60FB68D868C7
:1040F00079683B683A6900F082FC0346FB75FB680F
:1041000000225A71FB7D002B0CD1FB681B681968DB
:10411000BB6803F0100301229A40FB681B680A4346
:104120001A6005E0FB681B6943F00402FB681A6132
:10413000FB7D18461837BD4680BD00BF25440008EA
:104140004744000863440008034700082547000867
:104150004147000880B582B000AF786039607B6865
:104160001B6819683B6803F010034FF4805202FA91
:1041700003F3DA437B681B680A401A607B681B689C
:1041800019683B6803F01003012202FA03F3DA43D3
:104190007B681B680A401A603B68002B0DD17B6866
:1041A0009B68184600F083FC7B681B681A687B6874
:1041B0001B6822F400521A600CE07B68DB6818462A
:1041C00000F075FC7B681B681A687B681B6822F02E
:1041D00000521A607B6801221A71002318460837C2
:1041E000BD4680BD80B582B000AF78607B681B683B
:1041F0001B6803F40053B3F5005F20D17B681B6894
:104200005B6B03F40053B3F5005F18D17B680422A5
:104210001A717B681B6943F001027B681A617B6835
:104220001B684FF400525A637B681B681A687B68EE
:104230001B6822F480521A60786800F06CF87B6882
:104240001B681B6803F00053B3F1005F20D17B684B
:104250001B685B6B03F00053B3F1005F18D17B6800
:1042600004221A717B681B6943F002027B681A61A1
:104270007B681B684FF000525A637B681B681A68A2
:104280007B681B6822F080521A60786800F017FA89
:1042900000BF0837BD4680BD80B487B000AFF8606E
:1042A000B9607A603B6000237B61FB681B687B61BF
:1042B000BB68002B05D17A697B68134408337B61A6
:1042C00004E07A697B68134414337B617B691A4686
:1042D0003B681360002318461C37BD4680BC7047FE
:1042E00080B483B000AF786000BF0C37BD4680BC9F
:1042F000704780B483B000AF786000BF0C37BD4614
:1043000080BC704780B483B000AF786000BF0C37CA
:10431000BD4680BC704780B483B000AF786000BFFA
:104320000C37BD4680BC704780B485B000AF786064
:1043300039600023FB603B68002B04D17B681B685D
:10434000DB6AFB6003E07B681B681B6BFB60FB6840
:1043500018461437BD4680BC704780B487B000AFA4
:10436000F860B9607A60FB685B79012B01D10223A8
:104370003CE0FB6801225A71FB6802221A71FB685B
:104380001B681B687B617B6803F0100340F6FE72BC
:1043900002FA03F3DB437A6913407B61BB681A6856
:1043A000BB685B6813433B617B6803F010033A69A9
:1043B00002FA03F37A6913437B61FB681B687A692D
:1043C0001A60FB681B6819687B6803F01003C02241
:1043D00002FA03F3DA43FB681B680A401A60FB68C1
:1043E00001221A71FB6800225A71002318461C37FB
:1043F000BD4680BC704780B483B000AF78607B68F6
:104400001B79DBB218460C37BD4680BC704780B4C0
:1044100083B000AF78607B681B6918460C37BD46D7
:1044200080BC704780B584B000AF78607B689B6BC0
:10443000FB60F868FFF754FFFB6801221A7100BFA8
:104440001037BD4680BD80B584B000AF78607B6812
:104450009B6BFB60F868FFF74CFF00BF1037BD4651
:1044600080BD80B584B000AF78607B689B6BFB60DB
:10447000FB681B6943F00402FB681A61F868FFF7E8
:1044800041FFFB6801221A7100BF1037BD4680BD95
:1044900080B485B000AF78600023FB607B685B79F7
:1044A000012B01D102233BE07B6801225A717B681A
:1044B00002221A717B681B681A687B681B6842F0CD
:1044C00001021A607B681B681A687B681B6842F4EB
:1044D00080321A607B681B681B6803F03C033C2B2E
:1044E00003D1FB6843F00103FB607B681B681B681A
:1044F00003F47013B3F5701F03D1FB6843F002039C
:10450000FB607B681B6859687B681B68FA680A4314
:104510005A607B6801221A717B6800225A7100235D
:1045200018461437BD4680BC704780B483B000AFD6
:1045300078607B681B681A687B681B6822F0010240
:104540001A607B681B681A687B681B6822F48032DB
:104550001A607B6801221A71002318460C37BD4689
:1045600080BC704780B485B000AFF860B9607A60F5
:10457000FB685B79012B01D1022324E0FB68012257
:104580005A71FB6802221A71FB681B681A68BB68C3
:1045900003F010034FF47C6101FA03F3DB4302EAFA
:1045A00003017B6843F08002BB6803F010039A406C
:1045B000FB681B680A431A60FB6801221A71FB68DA
:1045C00000225A71002318461437BD4680BC70473C
:1045D00080B485B000AFF860B9607A60FB685B7941
:1045E000012B01D1022324E0FB6801225A71FB68F0
:1045F00002221A71FB681B681A68BB6803F010037B
:104600004FF47C6101FA03F3DB4302EA03017B68A8
:1046100043F04002BB6803F010039A40FB681B683C
:104620000A431A60FB6801221A71FB6800225A7162
:10463000002318461437BD4680BC704780B487B04D
:1046400000AFF860B9607A603B60BB68082B05D1A9
:104650003B681B027A6813437B6104E03B681B04E0
:104660007A6813437B61FB681B683B61BA683B69EE
:10467000134420333B613B697A691A600023184672
:104680001C37BD4680BC704780B483B000AF7860F3
:1046900000BF0C37BD4680BC704780B483B000AF0C
:1046A000786000BF0C37BD4680BC704780B483B0D3
:1046B00000AF786000BF0C37BD4680BC704780B447
:1046C00083B000AF786000BF0C37BD4680BC704738
:1046D00080B485B000AF78600023FB607B681B6806
:1046E000DB6AFA681343FB607B681B681B6B1B0467
:1046F000FA681343FB60FB6818461437BD4680BC5C
:10470000704780B584B000AF78607B689B6BFB60BE
:10471000F868FFF7B9FFFB6801221A7100BF103774
:10472000BD4680BD80B584B000AF78607B689B6B70
:10473000FB60F868FFF7B1FF00BF1037BD4680BDD2
:1047400080B584B000AF78607B689B6BFB60FB68D2
:104750001B6943F00402FB681A61F868FFF7A6FFC3
:10476000FB6801221A7100BF1037BD4680BD0000F2
:1047700080B586B000AF786000237B61FEF7ECFE69
:1047800038617B68002B01D1012399E07B6802220C
:1047900083F835207B68002283F834207B681B680F
:1047A0001A687B681B6822F001021A600FE0FEF7AE
:1047B000D3FE02463B69D31A052B08D97B68202219
:1047C0005A657B68032283F83520032378E07B68F1
:1047D0001B681B6803F00103002BE8D17B681B6892
:1047E0001B687B617A69384B13407B617B685A6830
:1047F0007B689B681A437B68DB681A437B681B698C
:104800001A437B685B691A437B689B691A437B6820
:10481000DB691A437B681B6A13437A6913437B6124
:104820007B685B6A042B07D17B68DA6A7B681B6B49
:1048300013437A6913437B617B681B687A691A604A
:104840007B681B685B697B617B6923F007037B6185
:104850007B685B6A7A6913437B617B685B6A042BC4
:1048600017D17B689B6A7A6913437B617B68DB6A3B
:10487000002B0ED0786800F047FD0346002B08D0CF
:104880007B6840225A657B68012283F8352001232A
:1048900016E07B681B687A695A61786800F0FFFC53
:1048A0000346FB607B68DB6D3F229A40FB689A60A1
:1048B0007B6800225A657B68012283F8352000233B
:1048C00018461837BD4680BD3F8010F080B584B0D3
:1048D00000AF78607B68002B01D1012350E07B683A
:1048E00093F83530DBB2022B01D1022348E07B681C
:1048F0001B681A687B681B6822F001021A607B68DB
:104900001B6800221A607B681B6800225A607B6863
:104910001B6800229A607B681B680022DA607B6853
:104920001B6800221A617B681B6821225A61786823
:1049300000F0B5FC0346FB607B680022DA637B680D
:1049400000221A647B6800225A647B6800229A6401
:104950007B680022DA647B6800221A657B68DB6D65
:104960003F229A40FB689A607B6800225A657B6808
:10497000002283F835207B68002283F8342000234E
:1049800018461037BD4680BD80B586B000AFF860D0
:10499000B9607A603B600023FB75FB6893F83430A4
:1049A000012B01D1022326E0FB68012283F8342089
:1049B000FB6893F83530DBB2012B15D1FB6802227E
:1049C00083F83520FB6800225A653B687A68B9682D
:1049D000F86800F037FCFB681B681A68FB681B6806
:1049E00042F001021A6005E0FB68002283F83420DF
:1049F0000223FB75FB7D18461837BD4680BD80B588
:104A000086B000AFF860B9607A603B600023FB7548
:104A1000FB689B6D3B61FB6893F83430012B01D13F
:104A2000022340E0FB68012283F83420FB6893F8FE
:104A30003530DBB2012B2FD1FB68022283F8352001
:104A4000FB6800225A653B687A68B968F86800F02C
:104A5000F9FBFB68DB6D3F229A403B699A60FB687B
:104A60001B681A68FB681B6842F016021A60FB6834
:104A70001B6C002B07D0FB681B681A68FB681B685F
:104A800042F008021A60FB681B681A68FB681B6822
:104A900042F001021A6005E0FB68002283F834202E
:104AA0000223FB75FB7D18461837BD4680BD80B5D7
:104AB00084B000AF78607B689B6DFB60FEF74CFDB7
:104AC000B8607B6893F83530DBB2022B08D07B6886
:104AD00080225A657B68002283F83420012352E04B
:104AE0007B681B681A687B681B6822F016021A60D4
:104AF0007B681B685A697B681B6822F080025A61D8
:104B00007B681B6C002B03D17B689B6C002B07D050
:104B10007B681B681A687B681B6822F008021A60B1
:104B20007B681B681A687B681B6822F001021A60A8
:104B300013E0FEF711FD0246BB68D31A052B0CD912
:104B40007B6820225A657B68032283F835207B68C6
:104B5000002283F83420032315E07B681B681B6860
:104B600003F00103002BE4D17B68DB6D3F229A4008
:104B7000FB689A607B68012283F835207B680022FD
:104B800083F83420002318461037BD4680BD80B41A
:104B900083B000AF78607B6893F83530DBB2022BCE
:104BA00004D07B6880225A6501230CE07B680522D3
:104BB00083F835207B681B681A687B681B6822F0C5
:104BC00001021A60002318460C37BD4680BC7047AE
:104BD00080B58AB000AFF8600B467A60FB720023A4
:104BE000FB77FEF7B9FCB861FB6893F83530DBB2B0
:104BF000022B08D0FB6880225A65FB68002283F8EC
:104C000034200123BFE0FB681B681B6803F480733A
:104C1000002B05D0FB684FF480725A650123B2E087
:104C2000FB7A002B06D1FB68DB6D202202FA03F32E
:104C30007B6205E0FB68DB6D102202FA03F37B6206
:104C4000FB689B6D7B617B691B683B625AE07B68FC
:104C5000B3F1FF3F17D07B68002B07D0FEF77CFC39
:104C60000246BB69D31A7A689A420CD2FB682022AA
:104C70005A65FB68012283F83520FB68002283F81F
:104C8000342003237FE07B691B683B62FB68DB6D9C
:104C900008229A403B6A1340002B0BD0FB685B6DE7
:104CA00043F00102FB685A65FB68DB6D08229A40FD
:104CB0007B699A60FB68DB6D01229A403B6A134076
:104CC000002B0BD0FB685B6D43F00202FB685A655A
:104CD000FB68DB6D01229A407B699A60FB68DB6DA3
:104CE00004229A403B6A1340002B0BD0FB685B6D9B
:104CF00043F00402FB685A65FB68DB6D04229A40AE
:104D00007B699A603A6A7B6A1340002B05D1FB6885
:104D10005B6D03F00103002B99D0FB685B6D002BEA
:104D200018D0FB685B6D03F00103002B12D0F8680C
:104D3000FFF7BDFEFB68DB6D30229A407B699A600D
:104D4000FB68012283F83520FB68002283F83420B9
:104D5000012318E0FB7A002B0ED1FB68DB6D3022BB
:104D60009A407B699A60FB68012283F83520FB68D2
:104D7000002283F8342005E0FB68DB6D10229A40A6
:104D80007B699A60FB7F18462837BD4680BD80B599
:104D900086B000AF78600023BB608E4B1B688E4AE4
:104DA000A2FB03239B0A7B617B689B6D3B613B6994
:104DB0001B68FB607B68DB6D08229A40FB68134030
:104DC000002B1AD07B681B681B6803F00403002BC0
:104DD00013D07B681B681A687B681B6822F004028A
:104DE0001A607B68DB6D08229A403B699A607B6899
:104DF0005B6D43F001027B685A657B68DB6D0122C5
:104E00009A40FB681340002B12D07B681B685B69DB
:104E100003F08003002B0BD07B68DB6D01229A40EE
:104E20003B699A607B685B6D43F002027B685A6560
:104E30007B68DB6D04229A40FB681340002B12D084
:104E40007B681B681B6803F00203002B0BD07B6898
:104E5000DB6D04229A403B699A607B685B6D43F08E
:104E600004027B685A657B68DB6D10229A40FB6800
:104E70001340002B43D07B681B681B6803F00803BA
:104E8000002B3CD07B68DB6D10229A403B699A6016
:104E90007B681B681B6803F48023002B18D07B6899
:104EA0001B681B6803F40023002B08D17B681B6C74
:104EB000002B24D07B681B6C786898471FE07B68C8
:104EC0009B6C002B1BD07B689B6C7868984716E026
:104ED0007B681B681B6803F48073002B07D17B6819
:104EE0001B681A687B681B6822F008021A607B68DE
:104EF0001B6C002B03D07B681B6C786898477B6821
:104F0000DB6D20229A40FB681340002B00F08E805E
:104F10007B681B681B6803F01003002B00F0868081
:104F20007B68DB6D20229A403B699A607B6893F82E
:104F30003530DBB2052B36D17B681B681A687B687D
:104F40001B6822F016021A607B681B685A697B682E
:104F50001B6822F080025A617B681B6C002B03D116
:104F60007B689B6C002B07D07B681B681A687B688A
:104F70001B6822F008021A607B68DB6D3F229A40B2
:104F80003B699A607B68012283F835207B680022A8
:104F900083F834207B681B6D002B7DD07B681B6DF4
:104FA0007868984778E07B681B681B6803F4802367
:104FB000002B1CD07B681B681B6803F40023002BAC
:104FC0000CD17B685B6C002B30D07B685B6C7868A5
:104FD00098472BE010000020B5814E1B7B68DB6BEF
:104FE000002B23D07B68DB6B786898471EE07B68DA
:104FF0001B681B6803F48073002B0FD17B681B6850
:105000001A687B681B6822F010021A607B68012214
:1050100083F835207B68002283F834207B68DB6BC3
:10502000002B03D07B68DB6B786898477B685B6DEF
:10503000002B32D07B685B6D03F00103002B22D084
:105040007B68052283F835207B681B681A687B68BB
:105050001B6822F001021A60BB680133BB607A69E9
:105060009A4207D37B681B681B6803F00103002B7F
:10507000F2D100E000BF7B68012283F835207B6815
:10508000002283F834207B68DB6C002B05D07B6822
:10509000DB6C7868984700E000BF1837BD4680BDDC
:1050A00080B487B000AFF8600B467A60FB720023D3
:1050B000FB75FB6893F83430012B01D102233CE0EF
:1050C000FB68012283F83420FB6893F83530DBB2AB
:1050D000012B29D1FB7A052B29D801A252F823F004
:1050E000F950000801510008095100081151000849
:1050F0001951000821510008FB687A68DA6317E04B
:10510000FB687A681A6413E0FB687A685A640FE0F7
:10511000FB687A689A640BE0FB687A68DA6407E0F7
:10512000FB687A681A6503E00123FB7500E000BFA5
:10513000FB68002283F83420FB7D18461C37BD46EF
:1051400080BC704780B485B000AF78600B46FB70C0
:105150000023FB737B6893F83430012B01D10223C9
:1051600053E07B68012283F834207B6893F8353064
:10517000DBB2012B42D1FB78062B3CD801A252F8BE
:1051800023F000BFA1510008A9510008B151000847
:10519000B9510008C1510008C9510008D151000897
:1051A0007B680022DA632BE07B6800221A6427E028
:1051B0007B6800225A6423E07B6800229A641FE027
:1051C0007B680022DA641BE07B6800221A6517E026
:1051D0007B680022DA637B6800221A647B68002205
:1051E0005A647B6800229A647B680022DA647B68D8
:1051F00000221A6504E00123FB7301E00123FB7325
:105200007B68002283F83420FB7B18461437BD46A8
:1052100080BC704780B483B000AF78607B6893F83F
:105220003530DBB218460C37BD4680BC704780B4C1
:1052300083B000AF78607B685B6D18460C37BD4665
:1052400080BC704780B485B000AFF860B9607A6008
:105250003B60FB681B681A68FB681B6822F48022AD
:105260001A60FB681B683A685A60FB689B68402BB1
:1052700008D1FB681B687A689A60FB681B68BA688B
:10528000DA6007E0FB681B68BA689A60FB681B6815
:105290007A68DA6000BF1437BD4680BC704780B4BE
:1052A00085B000AF78607B681B68DBB2103B144AA6
:1052B000A2FB03231B09FB60124AFB6813441B7803
:1052C0001A467B68DA65FB68032B09D97B681B6883
:1052D00023F47F7323F003031A1D7B689A6507E0AC
:1052E0007B681B6823F47F7323F003037A6893655C
:1052F0007B689B6D18461437BD4680BC704700BF65
:10530000ABAAAAAA7425030880B485B000AF786060
:105310000023FB737B689B6ABB607B689B69002BE7
:105320001FD1BB68032B56D801A252F823F000BF4F
:10533000415300085353000841530008D753000855
:105340007B68DB6A03F08073002B46D00123FB737C
:1053500043E07B68DB6AB3F1C07F40D10123FB737C
:105360003DE07B689B69B3F5005F21D1BB68032BEF
:1053700037D801A252F823F0895300088F53000850
:1053800089530008A15300080123FB7330E07B68B8
:10539000DB6A03F08073002B25D00123FB7322E02E
:1053A0007B68DB6AB3F1C07F1FD10123FB731CE074
:1053B000BB68022B03D9BB68032B03D018E0012381
:1053C000FB7315E07B68DB6A03F08073002B0ED063
:1053D0000123FB730BE000BF0AE000BF08E000BF41
:1053E00006E000BF04E000BF02E000BF00E000BF35
:1053F000FB7B18461437BD4680BC704780B586B02D
:1054000000AFF860B9607A603B600023FB75FB6811
:105410009B68802B06D1FB684FF480725A6501238C
:10542000FB7531E0FB6893F83430012B01D1022386
:105430002BE0FB68012283F83420FB6893F83530B9
:10544000DBB2012B1ED1FB68022283F83520FB68FA
:105450001B681A68FB681B6842F480221A60FB68AC
:105460001B683A681A613B6A7A68B968F86801F0A3
:1054700070F9FB681B681A68FB681B6842F0010240
:105480001A6001E00223FB75FB7D18461837BD4604
:1054900080BD80B586B000AFF860B9607A603B60CF
:1054A0000023FB75FB689B68802B06D1FB684FF4DB
:1054B00080725A65012301F010B9FB68DB6B002B89
:1054C00007D0FB685B6C002B03D0FB68DB6C002B08
:1054D00005D1FB6840225A65012301F0FEB8FB6844
:1054E00093F83430012B02D1022301F0F6B8FB68A7
:1054F000012283F83420FB6893F83530DBB2012BAE
:1055000041F0E480FB68022283F83520FB6800222A
:105510005A65FB681B681A68FB681B6842F48022A6
:105520001A60FB681B683A681A613B6A7A68B96856
:10553000F86801F00EF9FB681B681A468C4B9A421A
:1055400060D9FB681B688B4A934257D0FB681B6885
:10555000894A934250D0FB681B68884A934249D0DD
:10556000FB681B68864A934242D0FB681B68854AE9
:1055700093423AD0FB681B68834A934232D0FB685F
:105580001B68824A93422AD0FB681B68804A934278
:1055900022D0FB681B687F4A93421AD0FB681B68C5
:1055A0007D4A934212D0FB681B687C4A93420AD022
:1055B000FB681B687A4A934202D14FF400131EE045
:1055C0004FF000631BE04FF4001318E04FF400139A
:1055D00015E04FF4001312E04FF400630FE04FF4B6
:1055E00000630CE04FF4006309E04FF4006306E051
:1055F000202304E0202302E0202300E02023694A46
:10560000D3604EE1FB681B681A46674B9A4260D92B
:10561000FB681B68574A934257D0FB681B68564A81
:10562000934250D0FB681B68544A934249D0FB68B0
:105630001B68534A934242D0FB681B68514A93420D
:105640003AD0FB681B68504A934232D0FB681B6813
:105650004E4A93422AD0FB681B684D4A934222D09F
:10566000FB681B684B4A93421AD0FB681B684A4A86
:10567000934212D0FB681B68484A93420AD0FB68E9
:105680001B68474A934202D14FF400131EE04FF0CB
:1056900000631BE04FF4001318E04FF4001315E013
:1056A0004FF4001312E04FF400630FE04FF4006377
:1056B0000CE04FF4006309E04FF4006306E02023A0
:1056C00004E0202302E0202300E02023354A9360F9
:1056D000E7E0FB681B681A46344B9A4240F281802F
:1056E000FB681B68234A934277D0FB681B68224AF9
:1056F000934270D0FB681B68204A934269D0FB68D4
:105700001B681F4A934262D0FB681B681D4A934284
:105710005AD0FB681B681C4A934252D0FB681B6836
:105720001A4A93424AD0FB681B68194A934242D0F6
:10573000FB681B68174A93423AD0FB681B68164AFD
:10574000934212D0FB681B68144A93420AD0FB684C
:105750001B68134A934202D14FF400133EE04FF00E
:1057600000633BE04FF4001338E04FF4001335E0E2
:1057700058640240106002401064024070600240B1
:105780007064024028600240286402408860024041
:10579000886402404060024040640240A0600240D1
:1057A000A064024000640240B860024058600240B9
:1057B0004FF4001312E04FF400630FE04FF4006366
:1057C0000CE04FF4006309E04FF4006306E020238F
:1057D00004E0202302E0202300E020238C4AD36051
:1057E0005FE0FB681B688B4A934257D0FB681B68DD
:1057F000894A934250D0FB681B68884A934249D03B
:10580000FB681B68864A934242D0FB681B68854A46
:1058100093423AD0FB681B68834A934232D0FB68BC
:105820001B68824A93422AD0FB681B68804A9342D5
:1058300022D0FB681B687F4A93421AD0FB681B6822
:105840007D4A934212D0FB681B687C4A93420AD07F
:10585000FB681B687A4A934202D14FF400131EE0A2
:105860004FF000631BE04FF4001318E04FF40013F7
:1058700015E04FF4001312E04FF400630FE04FF413
:1058800000630CE04FF4006309E04FF4006306E0AE
:10589000202304E0202302E0202300E020235C4AB0
:1058A0009360FB681B681A46664B9A4260D9FB6896
:1058B0001B68584A934257D0FB681B68564A93426C
:1058C00050D0FB681B68554A934249D0FB681B685F
:1058D000534A934242D0FB681B68524A93423AD0E3
:1058E000FB681B68504A934232D0FB681B684F4AE2
:1058F00093422AD0FB681B684D4A934222D0FB6832
:105900001B684C4A93421AD0FB681B684A4A934270
:1059100012D0FB681B68494A93420AD0FB681B6897
:10592000474A934202D14FF480131EE04FF0806348
:105930001BE04FF4801318E04FF4801315E04FF490
:10594000801312E04FF480630FE04FF480630CE0AB
:105950004FF4806309E04FF4806306E0102304E015
:10596000102302E0102300E01023374AD3604FE1F8
:10597000FB681B681A46354B9A4240F28280FB68EE
:105980001B68244A934278D0FB681B68224A9342E2
:1059900071D0FB681B68214A93426AD0FB681B6880
:1059A0001F4A934263D0FB681B681E4A93425BD038
:1059B000FB681B681C4A934253D0FB681B681B4A58
:1059C00093424BD0FB681B68194A934243D0FB6853
:1059D0001B68184A93423BD0FB681B68164A9342E7
:1059E00012D0FB681B68154A93420AD0FB681B68FB
:1059F000134A934202D14FF480133FE04FF080638B
:105A00003CE04FF4801339E04FF4801336E000BFE0
:105A1000006002401060024010640240706002406A
:105A2000706402402860024028640240886002409E
:105A3000886402404060024040640240A06002402E
:105A4000A06402405864024000640240B860024012
:105A50004FF4801312E04FF480630FE04FF4806343
:105A60000CE04FF4806309E04FF4806306E01023FC
:105A700004E0102302E0102300E010238C4A93601E
:105A8000C6E0FB681B681A468A4B9A4260D9FB68DD
:105A90001B68894A934257D0FB681B68874A934228
:105AA00050D0FB681B68864A934249D0FB681B684C
:105AB000844A934242D0FB681B68834A93423AD09F
:105AC000FB681B68814A934232D0FB681B68804A9E
:105AD00093422AD0FB681B687E4A934222D0FB681F
:105AE0001B687D4A93421AD0FB681B687B4A93422D
